{
  "contractName": "CarbonCredit",
  "abi": [
    {
      "inputs": [],
      "stateMutability": "nonpayable",
      "type": "constructor"
    },
    {
      "anonymous": false,
      "inputs": [
        {
          "indexed": true,
          "internalType": "address",
          "name": "owner",
          "type": "address"
        },
        {
          "indexed": true,
          "internalType": "address",
          "name": "approved",
          "type": "address"
        },
        {
          "indexed": true,
          "internalType": "uint256",
          "name": "tokenId",
          "type": "uint256"
        }
      ],
      "name": "Approval",
      "type": "event"
    },
    {
      "anonymous": false,
      "inputs": [
        {
          "indexed": true,
          "internalType": "address",
          "name": "owner",
          "type": "address"
        },
        {
          "indexed": true,
          "internalType": "address",
          "name": "operator",
          "type": "address"
        },
        {
          "indexed": false,
          "internalType": "bool",
          "name": "approved",
          "type": "bool"
        }
      ],
      "name": "ApprovalForAll",
      "type": "event"
    },
    {
      "anonymous": false,
      "inputs": [
        {
          "indexed": true,
          "internalType": "address",
          "name": "from",
          "type": "address"
        },
        {
          "indexed": true,
          "internalType": "address",
          "name": "to",
          "type": "address"
        },
        {
          "indexed": true,
          "internalType": "uint256",
          "name": "tokenId",
          "type": "uint256"
        }
      ],
      "name": "Transfer",
      "type": "event"
    },
    {
      "inputs": [
        {
          "internalType": "address",
          "name": "to",
          "type": "address"
        },
        {
          "internalType": "uint256",
          "name": "tokenId",
          "type": "uint256"
        }
      ],
      "name": "approve",
      "outputs": [],
      "stateMutability": "nonpayable",
      "type": "function"
    },
    {
      "inputs": [
        {
          "internalType": "address",
          "name": "owner",
          "type": "address"
        }
      ],
      "name": "balanceOf",
      "outputs": [
        {
          "internalType": "uint256",
          "name": "",
          "type": "uint256"
        }
      ],
      "stateMutability": "view",
      "type": "function",
      "constant": true
    },
    {
      "inputs": [
        {
          "internalType": "uint256",
          "name": "tokenId",
          "type": "uint256"
        }
      ],
      "name": "getApproved",
      "outputs": [
        {
          "internalType": "address",
          "name": "",
          "type": "address"
        }
      ],
      "stateMutability": "view",
      "type": "function",
      "constant": true
    },
    {
      "inputs": [
        {
          "internalType": "address",
          "name": "owner",
          "type": "address"
        },
        {
          "internalType": "address",
          "name": "operator",
          "type": "address"
        }
      ],
      "name": "isApprovedForAll",
      "outputs": [
        {
          "internalType": "bool",
          "name": "",
          "type": "bool"
        }
      ],
      "stateMutability": "view",
      "type": "function",
      "constant": true
    },
    {
      "inputs": [],
      "name": "name",
      "outputs": [
        {
          "internalType": "string",
          "name": "",
          "type": "string"
        }
      ],
      "stateMutability": "view",
      "type": "function",
      "constant": true
    },
    {
      "inputs": [
        {
          "internalType": "uint256",
          "name": "tokenId",
          "type": "uint256"
        }
      ],
      "name": "ownerOf",
      "outputs": [
        {
          "internalType": "address",
          "name": "",
          "type": "address"
        }
      ],
      "stateMutability": "view",
      "type": "function",
      "constant": true
    },
    {
      "inputs": [
        {
          "internalType": "address",
          "name": "from",
          "type": "address"
        },
        {
          "internalType": "address",
          "name": "to",
          "type": "address"
        },
        {
          "internalType": "uint256",
          "name": "tokenId",
          "type": "uint256"
        }
      ],
      "name": "safeTransferFrom",
      "outputs": [],
      "stateMutability": "nonpayable",
      "type": "function"
    },
    {
      "inputs": [
        {
          "internalType": "address",
          "name": "from",
          "type": "address"
        },
        {
          "internalType": "address",
          "name": "to",
          "type": "address"
        },
        {
          "internalType": "uint256",
          "name": "tokenId",
          "type": "uint256"
        },
        {
          "internalType": "bytes",
          "name": "data",
          "type": "bytes"
        }
      ],
      "name": "safeTransferFrom",
      "outputs": [],
      "stateMutability": "nonpayable",
      "type": "function"
    },
    {
      "inputs": [
        {
          "internalType": "address",
          "name": "operator",
          "type": "address"
        },
        {
          "internalType": "bool",
          "name": "approved",
          "type": "bool"
        }
      ],
      "name": "setApprovalForAll",
      "outputs": [],
      "stateMutability": "nonpayable",
      "type": "function"
    },
    {
      "inputs": [
        {
          "internalType": "bytes4",
          "name": "interfaceId",
          "type": "bytes4"
        }
      ],
      "name": "supportsInterface",
      "outputs": [
        {
          "internalType": "bool",
          "name": "",
          "type": "bool"
        }
      ],
      "stateMutability": "view",
      "type": "function",
      "constant": true
    },
    {
      "inputs": [],
      "name": "symbol",
      "outputs": [
        {
          "internalType": "string",
          "name": "",
          "type": "string"
        }
      ],
      "stateMutability": "view",
      "type": "function",
      "constant": true
    },
    {
      "inputs": [],
      "name": "tokenCounter",
      "outputs": [
        {
          "internalType": "uint256",
          "name": "",
          "type": "uint256"
        }
      ],
      "stateMutability": "view",
      "type": "function",
      "constant": true
    },
    {
      "inputs": [
        {
          "internalType": "uint256",
          "name": "tokenId",
          "type": "uint256"
        }
      ],
      "name": "tokenURI",
      "outputs": [
        {
          "internalType": "string",
          "name": "",
          "type": "string"
        }
      ],
      "stateMutability": "view",
      "type": "function",
      "constant": true
    },
    {
      "inputs": [
        {
          "internalType": "address",
          "name": "from",
          "type": "address"
        },
        {
          "internalType": "address",
          "name": "to",
          "type": "address"
        },
        {
          "internalType": "uint256",
          "name": "tokenId",
          "type": "uint256"
        }
      ],
      "name": "transferFrom",
      "outputs": [],
      "stateMutability": "nonpayable",
      "type": "function"
    },
    {
      "inputs": [],
      "name": "createCarbonCredit",
      "outputs": [
        {
          "internalType": "uint256",
          "name": "",
          "type": "uint256"
        }
      ],
      "stateMutability": "nonpayable",
      "type": "function"
    }
  ],
  "bytecode": "0x60806040523480156200001157600080fd5b506040518060400160405280600c81526020017f436172626f6e43726564697400000000000000000000000000000000000000008152506040518060400160405280600381526020017f4352430000000000000000000000000000000000000000000000000000000000815250816000908051906020019062000096929190620000c0565b508060019080519060200190620000af929190620000c0565b5050506000600681905550620001d4565b828054620000ce906200019f565b90600052602060002090601f016020900481019282620000f257600085556200013e565b82601f106200010d57805160ff19168380011785556200013e565b828001600101855582156200013e579182015b828111156200013d57825182559160200191906001019062000120565b5b5090506200014d919062000151565b5090565b5b808211156200016c57600081600090555060010162000152565b5090565b7f4e487b7100000000000000000000000000000000000000000000000000000000600052602260045260246000fd5b60006002820490506001821680620001b857607f821691505b602082108103620001ce57620001cd62000170565b5b50919050565b61275180620001e46000396000f3fe608060405234801561001057600080fd5b50600436106100f55760003560e01c806370a0823111610097578063c87b56dd11610066578063c87b56dd14610282578063c8a9f52d146102b2578063d082e381146102d0578063e985e9c5146102ee576100f5565b806370a08231146101fc57806395d89b411461022c578063a22cb4651461024a578063b88d4fde14610266576100f5565b8063095ea7b3116100d3578063095ea7b31461017857806323b872dd1461019457806342842e0e146101b05780636352211e146101cc576100f5565b806301ffc9a7146100fa57806306fdde031461012a578063081812fc14610148575b600080fd5b610114600480360381019061010f9190611943565b61031e565b604051610121919061198b565b60405180910390f35b610132610400565b60405161013f9190611a3f565b60405180910390f35b610162600480360381019061015d9190611a97565b610492565b60405161016f9190611b05565b60405180910390f35b610192600480360381019061018d9190611b4c565b6104d8565b005b6101ae60048036038101906101a99190611b8c565b6105ef565b005b6101ca60048036038101906101c59190611b8c565b61064f565b005b6101e660048036038101906101e19190611a97565b61066f565b6040516101f39190611b05565b60405180910390f35b61021660048036038101906102119190611bdf565b6106f5565b6040516102239190611c1b565b60405180910390f35b6102346107ac565b6040516102419190611a3f565b60405180910390f35b610264600480360381019061025f9190611c62565b61083e565b005b610280600480360381019061027b9190611dd7565b610854565b005b61029c60048036038101906102979190611a97565b6108b6565b6040516102a99190611a3f565b60405180910390f35b6102ba61091e565b6040516102c79190611c1b565b60405180910390f35b6102d861094f565b6040516102e59190611c1b565b60405180910390f35b61030860048036038101906103039190611e5a565b610955565b604051610315919061198b565b60405180910390f35b60007f80ac58cd000000000000000000000000000000000000000000000000000000007bffffffffffffffffffffffffffffffffffffffffffffffffffffffff1916827bffffffffffffffffffffffffffffffffffffffffffffffffffffffff191614806103e957507f5b5e139f000000000000000000000000000000000000000000000000000000007bffffffffffffffffffffffffffffffffffffffffffffffffffffffff1916827bffffffffffffffffffffffffffffffffffffffffffffffffffffffff1916145b806103f957506103f8826109e9565b5b9050919050565b60606000805461040f90611ec9565b80601f016020809104026020016040519081016040528092919081815260200182805461043b90611ec9565b80156104885780601f1061045d57610100808354040283529160200191610488565b820191906000526020600020905b81548152906001019060200180831161046b57829003601f168201915b5050505050905090565b600061049d82610a53565b6004600083815260200190815260200160002060009054906101000a900473ffffffffffffffffffffffffffffffffffffffff169050919050565b60006104e38261066f565b90508073ffffffffffffffffffffffffffffffffffffffff168373ffffffffffffffffffffffffffffffffffffffff1603610553576040517f08c379a000000000000000000000000000000000000000000000000000000000815260040161054a90611f6c565b60405180910390fd5b8073ffffffffffffffffffffffffffffffffffffffff16610572610a9e565b73ffffffffffffffffffffffffffffffffffffffff1614806105a157506105a08161059b610a9e565b610955565b5b6105e0576040517f08c379a00000000000000000000000000000000000000000000000000000000081526004016105d790611ffe565b60405180910390fd5b6105ea8383610aa6565b505050565b6106006105fa610a9e565b82610b5f565b61063f576040517f08c379a000000000000000000000000000000000000000000000000000000000815260040161063690612090565b60405180910390fd5b61064a838383610bf4565b505050565b61066a83838360405180602001604052806000815250610854565b505050565b60008061067b83610eed565b9050600073ffffffffffffffffffffffffffffffffffffffff168173ffffffffffffffffffffffffffffffffffffffff16036106ec576040517f08c379a00000000000000000000000000000000000000000000000000000000081526004016106e3906120fc565b60405180910390fd5b80915050919050565b60008073ffffffffffffffffffffffffffffffffffffffff168273ffffffffffffffffffffffffffffffffffffffff1603610765576040517f08c379a000000000000000000000000000000000000000000000000000000000815260040161075c9061218e565b60405180910390fd5b600360008373ffffffffffffffffffffffffffffffffffffffff1673ffffffffffffffffffffffffffffffffffffffff168152602001908152602001600020549050919050565b6060600180546107bb90611ec9565b80601f01602080910402602001604051908101604052809291908181526020018280546107e790611ec9565b80156108345780601f1061080957610100808354040283529160200191610834565b820191906000526020600020905b81548152906001019060200180831161081757829003601f168201915b5050505050905090565b610850610849610a9e565b8383610f2a565b5050565b61086561085f610a9e565b83610b5f565b6108a4576040517f08c379a000000000000000000000000000000000000000000000000000000000815260040161089b90612090565b60405180910390fd5b6108b084848484611096565b50505050565b60606108c182610a53565b60006108cb6110f2565b905060008151116108eb5760405180602001604052806000815250610916565b806108f584611109565b6040516020016109069291906121ea565b6040516020818303038152906040525b915050919050565b600080600654905061093033826111d7565b600660008154809291906109439061223d565b91905055508091505090565b60065481565b6000600560008473ffffffffffffffffffffffffffffffffffffffff1673ffffffffffffffffffffffffffffffffffffffff16815260200190815260200160002060008373ffffffffffffffffffffffffffffffffffffffff1673ffffffffffffffffffffffffffffffffffffffff16815260200190815260200160002060009054906101000a900460ff16905092915050565b60007f01ffc9a7000000000000000000000000000000000000000000000000000000007bffffffffffffffffffffffffffffffffffffffffffffffffffffffff1916827bffffffffffffffffffffffffffffffffffffffffffffffffffffffff1916149050919050565b610a5c816111f5565b610a9b576040517f08c379a0000000000000000000000000000000000000000000000000000000008152600401610a92906120fc565b60405180910390fd5b50565b600033905090565b816004600083815260200190815260200160002060006101000a81548173ffffffffffffffffffffffffffffffffffffffff021916908373ffffffffffffffffffffffffffffffffffffffff160217905550808273ffffffffffffffffffffffffffffffffffffffff16610b198361066f565b73ffffffffffffffffffffffffffffffffffffffff167f8c5be1e5ebec7d5bd14f71427d1e84f3dd0314c0f7b2291e5b200ac8c7c3b92560405160405180910390a45050565b600080610b6b8361066f565b90508073ffffffffffffffffffffffffffffffffffffffff168473ffffffffffffffffffffffffffffffffffffffff161480610bad5750610bac8185610955565b5b80610beb57508373ffffffffffffffffffffffffffffffffffffffff16610bd384610492565b73ffffffffffffffffffffffffffffffffffffffff16145b91505092915050565b8273ffffffffffffffffffffffffffffffffffffffff16610c148261066f565b73ffffffffffffffffffffffffffffffffffffffff1614610c6a576040517f08c379a0000000000000000000000000000000000000000000000000000000008152600401610c61906122f7565b60405180910390fd5b600073ffffffffffffffffffffffffffffffffffffffff168273ffffffffffffffffffffffffffffffffffffffff1603610cd9576040517f08c379a0000000000000000000000000000000000000000000000000000000008152600401610cd090612389565b60405180910390fd5b610ce68383836001611236565b8273ffffffffffffffffffffffffffffffffffffffff16610d068261066f565b73ffffffffffffffffffffffffffffffffffffffff1614610d5c576040517f08c379a0000000000000000000000000000000000000000000000000000000008152600401610d53906122f7565b60405180910390fd5b6004600082815260200190815260200160002060006101000a81549073ffffffffffffffffffffffffffffffffffffffff02191690556001600360008573ffffffffffffffffffffffffffffffffffffffff1673ffffffffffffffffffffffffffffffffffffffff168152602001908152602001600020600082825403925050819055506001600360008473ffffffffffffffffffffffffffffffffffffffff1673ffffffffffffffffffffffffffffffffffffffff16815260200190815260200160002060008282540192505081905550816002600083815260200190815260200160002060006101000a81548173ffffffffffffffffffffffffffffffffffffffff021916908373ffffffffffffffffffffffffffffffffffffffff160217905550808273ffffffffffffffffffffffffffffffffffffffff168473ffffffffffffffffffffffffffffffffffffffff167fddf252ad1be2c89b69c2b068fc378daa952ba7f163c4a11628f55a4df523b3ef60405160405180910390a4610ee8838383600161135c565b505050565b60006002600083815260200190815260200160002060009054906101000a900473ffffffffffffffffffffffffffffffffffffffff169050919050565b8173ffffffffffffffffffffffffffffffffffffffff168373ffffffffffffffffffffffffffffffffffffffff1603610f98576040517f08c379a0000000000000000000000000000000000000000000000000000000008152600401610f8f906123f5565b60405180910390fd5b80600560008573ffffffffffffffffffffffffffffffffffffffff1673ffffffffffffffffffffffffffffffffffffffff16815260200190815260200160002060008473ffffffffffffffffffffffffffffffffffffffff1673ffffffffffffffffffffffffffffffffffffffff16815260200190815260200160002060006101000a81548160ff0219169083151502179055508173ffffffffffffffffffffffffffffffffffffffff168373ffffffffffffffffffffffffffffffffffffffff167f17307eab39ab6107e8899845ad3d59bd9653f200f220920489ca2b5937696c3183604051611089919061198b565b60405180910390a3505050565b6110a1848484610bf4565b6110ad84848484611362565b6110ec576040517f08c379a00000000000000000000000000000000000000000000000000000000081526004016110e390612487565b60405180910390fd5b50505050565b606060405180602001604052806000815250905090565b606060006001611118846114e9565b01905060008167ffffffffffffffff81111561113757611136611cac565b5b6040519080825280601f01601f1916602001820160405280156111695781602001600182028036833780820191505090505b509050600082602001820190505b6001156111cc578080600190039150507f3031323334353637383961626364656600000000000000000000000000000000600a86061a8153600a85816111c0576111bf6124a7565b5b04945060008503611177575b819350505050919050565b6111f182826040518060200160405280600081525061163c565b5050565b60008073ffffffffffffffffffffffffffffffffffffffff1661121783610eed565b73ffffffffffffffffffffffffffffffffffffffff1614159050919050565b600181111561135657600073ffffffffffffffffffffffffffffffffffffffff168473ffffffffffffffffffffffffffffffffffffffff16146112ca5780600360008673ffffffffffffffffffffffffffffffffffffffff1673ffffffffffffffffffffffffffffffffffffffff16815260200190815260200160002060008282546112c291906124d6565b925050819055505b600073ffffffffffffffffffffffffffffffffffffffff168373ffffffffffffffffffffffffffffffffffffffff16146113555780600360008573ffffffffffffffffffffffffffffffffffffffff1673ffffffffffffffffffffffffffffffffffffffff168152602001908152602001600020600082825461134d919061250a565b925050819055505b5b50505050565b50505050565b60006113838473ffffffffffffffffffffffffffffffffffffffff16611697565b156114dc578373ffffffffffffffffffffffffffffffffffffffff1663150b7a026113ac610a9e565b8786866040518563ffffffff1660e01b81526004016113ce94939291906125b5565b6020604051808303816000875af192505050801561140a57506040513d601f19601f820116820180604052508101906114079190612616565b60015b61148c573d806000811461143a576040519150601f19603f3d011682016040523d82523d6000602084013e61143f565b606091505b506000815103611484576040517f08c379a000000000000000000000000000000000000000000000000000000000815260040161147b90612487565b60405180910390fd5b805181602001fd5b63150b7a0260e01b7bffffffffffffffffffffffffffffffffffffffffffffffffffffffff1916817bffffffffffffffffffffffffffffffffffffffffffffffffffffffff1916149150506114e1565b600190505b949350505050565b600080600090507a184f03e93ff9f4daa797ed6e38ed64bf6a1f0100000000000000008310611547577a184f03e93ff9f4daa797ed6e38ed64bf6a1f010000000000000000838161153d5761153c6124a7565b5b0492506040810190505b6d04ee2d6d415b85acef81000000008310611584576d04ee2d6d415b85acef8100000000838161157a576115796124a7565b5b0492506020810190505b662386f26fc1000083106115b357662386f26fc1000083816115a9576115a86124a7565b5b0492506010810190505b6305f5e10083106115dc576305f5e10083816115d2576115d16124a7565b5b0492506008810190505b61271083106116015761271083816115f7576115f66124a7565b5b0492506004810190505b60648310611624576064838161161a576116196124a7565b5b0492506002810190505b600a8310611633576001810190505b80915050919050565b61164683836116ba565b6116536000848484611362565b611692576040517f08c379a000000000000000000000000000000000000000000000000000000000815260040161168990612487565b60405180910390fd5b505050565b6000808273ffffffffffffffffffffffffffffffffffffffff163b119050919050565b600073ffffffffffffffffffffffffffffffffffffffff168273ffffffffffffffffffffffffffffffffffffffff1603611729576040517f08c379a00000000000000000000000000000000000000000000000000000000081526004016117209061268f565b60405180910390fd5b611732816111f5565b15611772576040517f08c379a0000000000000000000000000000000000000000000000000000000008152600401611769906126fb565b60405180910390fd5b611780600083836001611236565b611789816111f5565b156117c9576040517f08c379a00000000000000000000000000000000000000000000000000000000081526004016117c0906126fb565b60405180910390fd5b6001600360008473ffffffffffffffffffffffffffffffffffffffff1673ffffffffffffffffffffffffffffffffffffffff16815260200190815260200160002060008282540192505081905550816002600083815260200190815260200160002060006101000a81548173ffffffffffffffffffffffffffffffffffffffff021916908373ffffffffffffffffffffffffffffffffffffffff160217905550808273ffffffffffffffffffffffffffffffffffffffff16600073ffffffffffffffffffffffffffffffffffffffff167fddf252ad1be2c89b69c2b068fc378daa952ba7f163c4a11628f55a4df523b3ef60405160405180910390a46118d360008383600161135c565b5050565b6000604051905090565b600080fd5b600080fd5b60007fffffffff0000000000000000000000000000000000000000000000000000000082169050919050565b611920816118eb565b811461192b57600080fd5b50565b60008135905061193d81611917565b92915050565b600060208284031215611959576119586118e1565b5b60006119678482850161192e565b91505092915050565b60008115159050919050565b61198581611970565b82525050565b60006020820190506119a0600083018461197c565b92915050565b600081519050919050565b600082825260208201905092915050565b60005b838110156119e05780820151818401526020810190506119c5565b838111156119ef576000848401525b50505050565b6000601f19601f8301169050919050565b6000611a11826119a6565b611a1b81856119b1565b9350611a2b8185602086016119c2565b611a34816119f5565b840191505092915050565b60006020820190508181036000830152611a598184611a06565b905092915050565b6000819050919050565b611a7481611a61565b8114611a7f57600080fd5b50565b600081359050611a9181611a6b565b92915050565b600060208284031215611aad57611aac6118e1565b5b6000611abb84828501611a82565b91505092915050565b600073ffffffffffffffffffffffffffffffffffffffff82169050919050565b6000611aef82611ac4565b9050919050565b611aff81611ae4565b82525050565b6000602082019050611b1a6000830184611af6565b92915050565b611b2981611ae4565b8114611b3457600080fd5b50565b600081359050611b4681611b20565b92915050565b60008060408385031215611b6357611b626118e1565b5b6000611b7185828601611b37565b9250506020611b8285828601611a82565b9150509250929050565b600080600060608486031215611ba557611ba46118e1565b5b6000611bb386828701611b37565b9350506020611bc486828701611b37565b9250506040611bd586828701611a82565b9150509250925092565b600060208284031215611bf557611bf46118e1565b5b6000611c0384828501611b37565b91505092915050565b611c1581611a61565b82525050565b6000602082019050611c306000830184611c0c565b92915050565b611c3f81611970565b8114611c4a57600080fd5b50565b600081359050611c5c81611c36565b92915050565b60008060408385031215611c7957611c786118e1565b5b6000611c8785828601611b37565b9250506020611c9885828601611c4d565b9150509250929050565b600080fd5b600080fd5b7f4e487b7100000000000000000000000000000000000000000000000000000000600052604160045260246000fd5b611ce4826119f5565b810181811067ffffffffffffffff82111715611d0357611d02611cac565b5b80604052505050565b6000611d166118d7565b9050611d228282611cdb565b919050565b600067ffffffffffffffff821115611d4257611d41611cac565b5b611d4b826119f5565b9050602081019050919050565b82818337600083830152505050565b6000611d7a611d7584611d27565b611d0c565b905082815260208101848484011115611d9657611d95611ca7565b5b611da1848285611d58565b509392505050565b600082601f830112611dbe57611dbd611ca2565b5b8135611dce848260208601611d67565b91505092915050565b60008060008060808587031215611df157611df06118e1565b5b6000611dff87828801611b37565b9450506020611e1087828801611b37565b9350506040611e2187828801611a82565b925050606085013567ffffffffffffffff811115611e4257611e416118e6565b5b611e4e87828801611da9565b91505092959194509250565b60008060408385031215611e7157611e706118e1565b5b6000611e7f85828601611b37565b9250506020611e9085828601611b37565b9150509250929050565b7f4e487b7100000000000000000000000000000000000000000000000000000000600052602260045260246000fd5b60006002820490506001821680611ee157607f821691505b602082108103611ef457611ef3611e9a565b5b50919050565b7f4552433732313a20617070726f76616c20746f2063757272656e74206f776e6560008201527f7200000000000000000000000000000000000000000000000000000000000000602082015250565b6000611f566021836119b1565b9150611f6182611efa565b604082019050919050565b60006020820190508181036000830152611f8581611f49565b9050919050565b7f4552433732313a20617070726f76652063616c6c6572206973206e6f7420746f60008201527f6b656e206f776e6572206f7220617070726f76656420666f7220616c6c000000602082015250565b6000611fe8603d836119b1565b9150611ff382611f8c565b604082019050919050565b6000602082019050818103600083015261201781611fdb565b9050919050565b7f4552433732313a2063616c6c6572206973206e6f7420746f6b656e206f776e6560008201527f72206f7220617070726f76656400000000000000000000000000000000000000602082015250565b600061207a602d836119b1565b91506120858261201e565b604082019050919050565b600060208201905081810360008301526120a98161206d565b9050919050565b7f4552433732313a20696e76616c696420746f6b656e2049440000000000000000600082015250565b60006120e66018836119b1565b91506120f1826120b0565b602082019050919050565b60006020820190508181036000830152612115816120d9565b9050919050565b7f4552433732313a2061646472657373207a65726f206973206e6f74206120766160008201527f6c6964206f776e65720000000000000000000000000000000000000000000000602082015250565b60006121786029836119b1565b91506121838261211c565b604082019050919050565b600060208201905081810360008301526121a78161216b565b9050919050565b600081905092915050565b60006121c4826119a6565b6121ce81856121ae565b93506121de8185602086016119c2565b80840191505092915050565b60006121f682856121b9565b915061220282846121b9565b91508190509392505050565b7f4e487b7100000000000000000000000000000000000000000000000000000000600052601160045260246000fd5b600061224882611a61565b91507fffffffffffffffffffffffffffffffffffffffffffffffffffffffffffffffff820361227a5761227961220e565b5b600182019050919050565b7f4552433732313a207472616e736665722066726f6d20696e636f72726563742060008201527f6f776e6572000000000000000000000000000000000000000000000000000000602082015250565b60006122e16025836119b1565b91506122ec82612285565b604082019050919050565b60006020820190508181036000830152612310816122d4565b9050919050565b7f4552433732313a207472616e7366657220746f20746865207a65726f2061646460008201527f7265737300000000000000000000000000000000000000000000000000000000602082015250565b60006123736024836119b1565b915061237e82612317565b604082019050919050565b600060208201905081810360008301526123a281612366565b9050919050565b7f4552433732313a20617070726f766520746f2063616c6c657200000000000000600082015250565b60006123df6019836119b1565b91506123ea826123a9565b602082019050919050565b6000602082019050818103600083015261240e816123d2565b9050919050565b7f4552433732313a207472616e7366657220746f206e6f6e20455243373231526560008201527f63656976657220696d706c656d656e7465720000000000000000000000000000602082015250565b60006124716032836119b1565b915061247c82612415565b604082019050919050565b600060208201905081810360008301526124a081612464565b9050919050565b7f4e487b7100000000000000000000000000000000000000000000000000000000600052601260045260246000fd5b60006124e182611a61565b91506124ec83611a61565b9250828210156124ff576124fe61220e565b5b828203905092915050565b600061251582611a61565b915061252083611a61565b9250827fffffffffffffffffffffffffffffffffffffffffffffffffffffffffffffffff038211156125555761255461220e565b5b828201905092915050565b600081519050919050565b600082825260208201905092915050565b600061258782612560565b612591818561256b565b93506125a18185602086016119c2565b6125aa816119f5565b840191505092915050565b60006080820190506125ca6000830187611af6565b6125d76020830186611af6565b6125e46040830185611c0c565b81810360608301526125f6818461257c565b905095945050505050565b60008151905061261081611917565b92915050565b60006020828403121561262c5761262b6118e1565b5b600061263a84828501612601565b91505092915050565b7f4552433732313a206d696e7420746f20746865207a65726f2061646472657373600082015250565b60006126796020836119b1565b915061268482612643565b602082019050919050565b600060208201905081810360008301526126a88161266c565b9050919050565b7f4552433732313a20746f6b656e20616c7265616479206d696e74656400000000600082015250565b60006126e5601c836119b1565b91506126f0826126af565b602082019050919050565b60006020820190508181036000830152612714816126d8565b905091905056fea264697066735822122050b9264065e73fcc254fb8c132dbcbed2bd1527a211e377dbcd3b0bed8191a2d64736f6c634300080d0033",
  "immutableReferences": {},
  "source": "// SPDX-License-Identifier: MIT\r\npragma solidity ^0.8.13; // Match the version specified in truffle-config.js\r\n\r\nimport \"@openzeppelin/contracts/token/ERC721/ERC721.sol\";\r\n\r\ncontract CarbonCredit is ERC721 {\r\n    uint256 public tokenCounter;\r\n\r\n    constructor() ERC721(\"CarbonCredit\", \"CRC\") {\r\n        tokenCounter = 0;\r\n    }\r\n\r\n    function createCarbonCredit() public returns (uint256) {\r\n        uint256 newTokenId = tokenCounter;\r\n        _safeMint(msg.sender, newTokenId);\r\n        tokenCounter++;\r\n        return newTokenId;\r\n    }\r\n}\r\n",
  "sourcePath": "C:\\Users\\Lenovo\\carbon-nft-marketplace\\contracts\\CarbonCredit.sol",
  "compiler": {
    "name": "solc",
    "version": "0.8.13+commit.abaa5c0e.Emscripten.clang"
  },
  "schemaVersion": "3.4.16",
  "updatedAt": "2024-09-15T13:29:05.330Z",
  "networkType": "ethereum",
  "devdoc": {
    "kind": "dev",
    "methods": {
      "approve(address,uint256)": {
        "details": "See {IERC721-approve}."
      },
      "balanceOf(address)": {
        "details": "See {IERC721-balanceOf}."
      },
      "getApproved(uint256)": {
        "details": "See {IERC721-getApproved}."
      },
      "isApprovedForAll(address,address)": {
        "details": "See {IERC721-isApprovedForAll}."
      },
      "name()": {
        "details": "See {IERC721Metadata-name}."
      },
      "ownerOf(uint256)": {
        "details": "See {IERC721-ownerOf}."
      },
      "safeTransferFrom(address,address,uint256)": {
        "details": "See {IERC721-safeTransferFrom}."
      },
      "safeTransferFrom(address,address,uint256,bytes)": {
        "details": "See {IERC721-safeTransferFrom}."
      },
      "setApprovalForAll(address,bool)": {
        "details": "See {IERC721-setApprovalForAll}."
      },
      "supportsInterface(bytes4)": {
        "details": "See {IERC165-supportsInterface}."
      },
      "symbol()": {
        "details": "See {IERC721Metadata-symbol}."
      },
      "tokenURI(uint256)": {
        "details": "See {IERC721Metadata-tokenURI}."
      },
      "transferFrom(address,address,uint256)": {
        "details": "See {IERC721-transferFrom}."
      }
    },
    "version": 1
  },
  "userdoc": {
    "kind": "user",
    "methods": {},
    "version": 1
  }
}